:020000040000FA
:100000000002002071010000790100007B01000066
:100010007D0100007F010000810100000000000060
:10002000000000000000000000000000830100004C
:100030008501000000000000870100008901000028
:100040008B0100008B0100008B0100008B01000080
:100050008B0100008B0100008B0100008B01000070
:100060008B0100008B0100008B0100008B01000060
:100070008B0100008B0100008B0100008B01000050
:100080008B0100008B0100008B0100008B01000040
:100090008B0100008B0100008B0100008B01000030
:1000A0008B0100008B0100008B0100008B01000020
:1000B0008B0100008B0100008B0100008B01000010
:1000C0008B0100008B0100008B0100008B01000000
:1000D0008B01000000000000000000000000000094
:1000E0000000000000000000000000000000000010
:1000F0000000000000000000000000000000000000
:1001000000000000000000000000000000000000EF
:1001100000000000000000000000000000000000DF
:1001200000000000000000000000000000000000CF
:1001300000000000DFF80CD000F02CF80048004769
:10014000D902000000020020EFF3108072B6704761
:10015000EFF310807047EFF3108062B6704730BF46
:10016000704780F311887047EFF3118070470000EB
:100170000648804706480047FEE7FEE7FEE7FEE741
:10018000FEE7FEE7FEE7FEE7FEE7FEE7E901000027
:1001900035010000064C074D06E0E06840F0010321
:1001A00094E8070098471034AC42F6D3FFF7C6FF37
:1001B0005403000064030000064A52F820004289FC
:1001C0008A43428182898A43828182880A4382806B
:1001D000704700002403000010B5FFF7BCFF0028A3
:1001E00000D0012010BD00001E48006840F47000DF
:1001F0001C4908604FF4B5401B49088000BF1B48EC
:10020000006800F001000028F9D0184890384069D3
:10021000042804D1082015499039086503E002201C
:1002200012499039086546F65A10114908604FF492
:100230008030091D0860081D00680E4908400C49FF
:100240000831086000200A4908600B48006920F066
:100250003000094908610846406920F030004861D3
:100260007047000088ED00E00C480040903004E04A
:1002700000040140FBFFF8FF0010014070B544018D
:100280000125002604F18444012B01D01BB104E0B8
:1002900084F8185101E084F8186112B1012A03D0E2
:1002A00004E084F8046101E084F80451826822F0DB
:1002B0000C020A43826070BD02E008C8121F08C128
:1002C000002AFAD170477047002001E001C1121FD7
:1002D000002AFBD17047000010B509490968086879
:1002E00080470123002204210648FFF7C7FFFFF7DC
:1002F00073FF18B101210846FFF75EFF002010BD13
:100300006408000200C0004000000000330000004C
:100310003400000035000000360000003700000007
:100320003800000000000000004C0040014C00407C
:10033000204C0040214C0040404C0040414C0040CB
:10034000604C0040614C0040804C0040814C0040BB
:10035000204D004064030000000000200002000067
:04036000C8020000CF
:0400000500000135C1
:00000001FF
